{
  "address": "0x7ec2811f0F9D6e86d9ed65EC50B8Caba5cc8230D",
  "abi": [
    {
      "inputs": [
        {
          "internalType": "contract OracleHandler",
          "name": "_oracleHandler",
          "type": "address"
        }
      ],
      "stateMutability": "nonpayable",
      "type": "constructor"
    },
    {
      "anonymous": false,
      "inputs": [
        {
          "indexed": false,
          "internalType": "uint256",
          "name": "eid",
          "type": "uint256"
        }
      ],
      "name": "OrderCancelled",
      "type": "event"
    },
    {
      "anonymous": false,
      "inputs": [
        {
          "indexed": false,
          "internalType": "uint256",
          "name": "eid",
          "type": "uint256"
        },
        {
          "indexed": false,
          "internalType": "address",
          "name": "seller",
          "type": "address"
        },
        {
          "components": [
            {
              "internalType": "address",
              "name": "asset",
              "type": "address"
            },
            {
              "internalType": "uint256",
              "name": "amountOrTokenId",
              "type": "uint256"
            }
          ],
          "indexed": false,
          "internalType": "struct IMarketplace.Item",
          "name": "toSell",
          "type": "tuple"
        },
        {
          "components": [
            {
              "internalType": "address",
              "name": "asset",
              "type": "address"
            },
            {
              "internalType": "uint256",
              "name": "amountOrTokenId",
              "type": "uint256"
            }
          ],
          "indexed": false,
          "internalType": "struct IMarketplace.Item",
          "name": "toFulfill",
          "type": "tuple"
        }
      ],
      "name": "OrderCreated",
      "type": "event"
    },
    {
      "anonymous": false,
      "inputs": [
        {
          "indexed": false,
          "internalType": "uint256",
          "name": "eid",
          "type": "uint256"
        },
        {
          "indexed": false,
          "internalType": "address",
          "name": "buyer",
          "type": "address"
        },
        {
          "indexed": false,
          "internalType": "uint256",
          "name": "feeInETH",
          "type": "uint256"
        }
      ],
      "name": "OrderFulfilled",
      "type": "event"
    },
    {
      "anonymous": false,
      "inputs": [
        {
          "indexed": true,
          "internalType": "address",
          "name": "receiver",
          "type": "address"
        },
        {
          "indexed": false,
          "internalType": "uint256",
          "name": "amount",
          "type": "uint256"
        }
      ],
      "name": "Withdraw",
      "type": "event"
    },
    {
      "inputs": [
        {
          "internalType": "address",
          "name": "asset",
          "type": "address"
        }
      ],
      "name": "_isERC721",
      "outputs": [
        {
          "internalType": "bool",
          "name": "",
          "type": "bool"
        }
      ],
      "stateMutability": "view",
      "type": "function"
    },
    {
      "inputs": [
        {
          "internalType": "uint256",
          "name": "eid",
          "type": "uint256"
        }
      ],
      "name": "cancel",
      "outputs": [],
      "stateMutability": "nonpayable",
      "type": "function"
    },
    {
      "inputs": [
        {
          "internalType": "uint256",
          "name": "eid",
          "type": "uint256"
        }
      ],
      "name": "fulfill",
      "outputs": [],
      "stateMutability": "payable",
      "type": "function"
    },
    {
      "inputs": [
        {
          "components": [
            {
              "internalType": "address",
              "name": "asset",
              "type": "address"
            },
            {
              "internalType": "uint256",
              "name": "amountOrTokenId",
              "type": "uint256"
            }
          ],
          "internalType": "struct IMarketplace.Item",
          "name": "toSell",
          "type": "tuple"
        },
        {
          "components": [
            {
              "internalType": "address",
              "name": "asset",
              "type": "address"
            },
            {
              "internalType": "uint256",
              "name": "amountOrTokenId",
              "type": "uint256"
            }
          ],
          "internalType": "struct IMarketplace.Item",
          "name": "toFulfill",
          "type": "tuple"
        },
        {
          "internalType": "uint256",
          "name": "deadline",
          "type": "uint256"
        }
      ],
      "name": "list",
      "outputs": [],
      "stateMutability": "nonpayable",
      "type": "function"
    },
    {
      "inputs": [],
      "name": "oracleHandler",
      "outputs": [
        {
          "internalType": "contract OracleHandler",
          "name": "",
          "type": "address"
        }
      ],
      "stateMutability": "view",
      "type": "function"
    },
    {
      "inputs": [
        {
          "internalType": "uint256",
          "name": "",
          "type": "uint256"
        }
      ],
      "name": "orders",
      "outputs": [
        {
          "internalType": "uint256",
          "name": "eid",
          "type": "uint256"
        },
        {
          "internalType": "address",
          "name": "seller",
          "type": "address"
        },
        {
          "internalType": "address",
          "name": "buyer",
          "type": "address"
        },
        {
          "components": [
            {
              "internalType": "address",
              "name": "asset",
              "type": "address"
            },
            {
              "internalType": "uint256",
              "name": "amountOrTokenId",
              "type": "uint256"
            }
          ],
          "internalType": "struct IMarketplace.Item",
          "name": "toSell",
          "type": "tuple"
        },
        {
          "components": [
            {
              "internalType": "address",
              "name": "asset",
              "type": "address"
            },
            {
              "internalType": "uint256",
              "name": "amountOrTokenId",
              "type": "uint256"
            }
          ],
          "internalType": "struct IMarketplace.Item",
          "name": "toFulfill",
          "type": "tuple"
        },
        {
          "internalType": "bool",
          "name": "fulfilled",
          "type": "bool"
        },
        {
          "internalType": "uint256",
          "name": "deadline",
          "type": "uint256"
        }
      ],
      "stateMutability": "view",
      "type": "function"
    },
    {
      "inputs": [],
      "name": "platformFeePercentage",
      "outputs": [
        {
          "internalType": "uint256",
          "name": "",
          "type": "uint256"
        }
      ],
      "stateMutability": "view",
      "type": "function"
    },
    {
      "inputs": [],
      "name": "viewOrders",
      "outputs": [
        {
          "components": [
            {
              "internalType": "uint256",
              "name": "eid",
              "type": "uint256"
            },
            {
              "internalType": "address",
              "name": "seller",
              "type": "address"
            },
            {
              "internalType": "address",
              "name": "buyer",
              "type": "address"
            },
            {
              "components": [
                {
                  "internalType": "address",
                  "name": "asset",
                  "type": "address"
                },
                {
                  "internalType": "uint256",
                  "name": "amountOrTokenId",
                  "type": "uint256"
                }
              ],
              "internalType": "struct IMarketplace.Item",
              "name": "toSell",
              "type": "tuple"
            },
            {
              "components": [
                {
                  "internalType": "address",
                  "name": "asset",
                  "type": "address"
                },
                {
                  "internalType": "uint256",
                  "name": "amountOrTokenId",
                  "type": "uint256"
                }
              ],
              "internalType": "struct IMarketplace.Item",
              "name": "toFulfill",
              "type": "tuple"
            },
            {
              "internalType": "bool",
              "name": "fulfilled",
              "type": "bool"
            },
            {
              "internalType": "uint256",
              "name": "deadline",
              "type": "uint256"
            }
          ],
          "internalType": "struct IMarketplace.Order[]",
          "name": "",
          "type": "tuple[]"
        }
      ],
      "stateMutability": "view",
      "type": "function"
    },
    {
      "inputs": [],
      "name": "withdraw",
      "outputs": [],
      "stateMutability": "nonpayable",
      "type": "function"
    },
    {
      "stateMutability": "payable",
      "type": "receive"
    }
  ],
  "transactionHash": "0x5ee794a96d311f882e412d8555ac3f3beb1d025d53327fcdcba2cd4a83c0454d",
  "args": [
    "0x8B06853485735cE9DC76056178Ee45413493b9d9"
  ],
  "numDeployments": 1,
  "solcInputHash": "866afac280fe23d97514be623aa88998",
  "bytecode": "0x608060405260056003553480156200001657600080fd5b50604051620024073803806200240783398181016040528101906200003c919062000142565b336000806101000a81548173ffffffffffffffffffffffffffffffffffffffff021916908373ffffffffffffffffffffffffffffffffffffffff16021790555080600460006101000a81548173ffffffffffffffffffffffffffffffffffffffff021916908373ffffffffffffffffffffffffffffffffffffffff1602179055505062000174565b600080fd5b600073ffffffffffffffffffffffffffffffffffffffff82169050919050565b6000620000f682620000c9565b9050919050565b60006200010a82620000e9565b9050919050565b6200011c81620000fd565b81146200012857600080fd5b50565b6000815190506200013c8162000111565b92915050565b6000602082840312156200015b576200015a620000c4565b5b60006200016b848285016200012b565b91505092915050565b61228380620001846000396000f3fe60806040526004361061008a5760003560e01c80636b89ff45116100595780636b89ff451461013c578063753b880714610167578063a85c38ef14610183578063cdd78cfc146101c6578063f5218908146101f157610091565b806301683c171461009657806314805489146100d35780633ccfd60b146100fc57806340e58ee51461011357610091565b3661009157005b600080fd5b3480156100a257600080fd5b506100bd60048036038101906100b8919061151e565b61021c565b6040516100ca9190611566565b60405180910390f35b3480156100df57600080fd5b506100fa60048036038101906100f59190611698565b61035a565b005b34801561010857600080fd5b5061011161068f565b005b34801561011f57600080fd5b5061013a600480360381019061013591906116eb565b610837565b005b34801561014857600080fd5b50610151610a61565b60405161015e9190611777565b60405180910390f35b610181600480360381019061017c91906116eb565b610a87565b005b34801561018f57600080fd5b506101aa60048036038101906101a591906116eb565b610df6565b6040516101bd97969594939291906117fd565b60405180910390f35b3480156101d257600080fd5b506101db610f59565b6040516101e8919061186e565b60405180910390f35b3480156101fd57600080fd5b50610206610f5f565b6040516102139190611a07565b60405180910390f35b6000806301ffc9a760e01b7f80ac58cd000000000000000000000000000000000000000000000000000000006040516024016102589190611a64565b604051602081830303815290604052907bffffffffffffffffffffffffffffffffffffffffffffffffffffffff19166020820180517bffffffffffffffffffffffffffffffffffffffffffffffffffffffff838183161783525050505090506000808473ffffffffffffffffffffffffffffffffffffffff16836040516102df9190611af0565b600060405180830381855afa9150503d806000811461031a576040519150601f19603f3d011682016040523d82523d6000602084013e61031f565b606091505b5091509150816103355760009350505050610355565b60008180602001905181019061034b9190611b33565b9050809450505050505b919050565b600073ffffffffffffffffffffffffffffffffffffffff16836000015173ffffffffffffffffffffffffffffffffffffffff16036103cd576040517f08c379a00000000000000000000000000000000000000000000000000000000081526004016103c490611bbd565b60405180910390fd5b600073ffffffffffffffffffffffffffffffffffffffff16826000015173ffffffffffffffffffffffffffffffffffffffff1603610440576040517f08c379a000000000000000000000000000000000000000000000000000000000815260040161043790611c29565b60405180910390fd5b600060016000815461045190611c78565b91905081905590506040518060e001604052808281526020013373ffffffffffffffffffffffffffffffffffffffff168152602001600073ffffffffffffffffffffffffffffffffffffffff16815260200185815260200184815260200160001515815260200183815250600260008381526020019081526020016000206000820151816000015560208201518160010160006101000a81548173ffffffffffffffffffffffffffffffffffffffff021916908373ffffffffffffffffffffffffffffffffffffffff16021790555060408201518160020160006101000a81548173ffffffffffffffffffffffffffffffffffffffff021916908373ffffffffffffffffffffffffffffffffffffffff16021790555060608201518160030160008201518160000160006101000a81548173ffffffffffffffffffffffffffffffffffffffff021916908373ffffffffffffffffffffffffffffffffffffffff16021790555060208201518160010155505060808201518160050160008201518160000160006101000a81548173ffffffffffffffffffffffffffffffffffffffff021916908373ffffffffffffffffffffffffffffffffffffffff16021790555060208201518160010155505060a08201518160070160006101000a81548160ff02191690831515021790555060c082015181600801559050507f588335fad23d76b3489329e1bae58bc381e43a0606c13b6b69da910de2127011813386866040516106819493929190611cc0565b60405180910390a150505050565b60008054906101000a900473ffffffffffffffffffffffffffffffffffffffff1673ffffffffffffffffffffffffffffffffffffffff163373ffffffffffffffffffffffffffffffffffffffff161461071d576040517f08c379a000000000000000000000000000000000000000000000000000000000815260040161071490611d77565b60405180910390fd5b60004711610760576040517f08c379a000000000000000000000000000000000000000000000000000000000815260040161075790611de3565b60405180910390fd5b60008054906101000a900473ffffffffffffffffffffffffffffffffffffffff1673ffffffffffffffffffffffffffffffffffffffff166108fc479081150290604051600060405180830381858888f193505050501580156107c6573d6000803e3d6000fd5b5060008054906101000a900473ffffffffffffffffffffffffffffffffffffffff1673ffffffffffffffffffffffffffffffffffffffff167f884edad9ce6fa2440d8a54cc123490eb96d2768479d49ff9c7366125a94243644760405161082d919061186e565b60405180910390a2565b60006002600083815260200190815260200160002090508060010160009054906101000a900473ffffffffffffffffffffffffffffffffffffffff1673ffffffffffffffffffffffffffffffffffffffff163373ffffffffffffffffffffffffffffffffffffffff16146108e0576040517f08c379a00000000000000000000000000000000000000000000000000000000081526004016108d790611e4f565b60405180910390fd5b8060070160009054906101000a900460ff1615610932576040517f08c379a000000000000000000000000000000000000000000000000000000000815260040161092990611ebb565b60405180910390fd5b600260008381526020019081526020016000206000808201600090556001820160006101000a81549073ffffffffffffffffffffffffffffffffffffffff02191690556002820160006101000a81549073ffffffffffffffffffffffffffffffffffffffff021916905560038201600080820160006101000a81549073ffffffffffffffffffffffffffffffffffffffff02191690556001820160009055505060058201600080820160006101000a81549073ffffffffffffffffffffffffffffffffffffffff0219169055600182016000905550506007820160006101000a81549060ff0219169055600882016000905550507f61b9399f2f0f32ca39ce8d7be32caed5ec22fe07a6daba3a467ed479ec60658282604051610a55919061186e565b60405180910390a15050565b600460009054906101000a900473ffffffffffffffffffffffffffffffffffffffff1681565b60006002600083815260200190815260200160002090508060070160009054906101000a900460ff1615610af0576040517f08c379a0000000000000000000000000000000000000000000000000000000008152600401610ae790611ebb565b60405180910390fd5b8060080154421115610b37576040517f08c379a0000000000000000000000000000000000000000000000000000000008152600401610b2e90611f27565b60405180910390fd5b600080600460009054906101000a900473ffffffffffffffffffffffffffffffffffffffff1673ffffffffffffffffffffffffffffffffffffffff16632006311e8460050160000160009054906101000a900473ffffffffffffffffffffffffffffffffffffffff166040518263ffffffff1660e01b8152600401610bbc9190611f47565b602060405180830381865afa158015610bd9573d6000803e3d6000fd5b505050506040513d601f19601f82011682018060405250810190610bfd9190611f77565b9050606460035482610c0f9190611fa4565b610c199190612015565b915081341015610c5e576040517f08c379a0000000000000000000000000000000000000000000000000000000008152600401610c55906120b8565b60405180910390fd5b610cfb836003016040518060400160405290816000820160009054906101000a900473ffffffffffffffffffffffffffffffffffffffff1673ffffffffffffffffffffffffffffffffffffffff1673ffffffffffffffffffffffffffffffffffffffff1681526020016001820154815250508460010160009054906101000a900473ffffffffffffffffffffffffffffffffffffffff163361127d565b610d98836005016040518060400160405290816000820160009054906101000a900473ffffffffffffffffffffffffffffffffffffffff1673ffffffffffffffffffffffffffffffffffffffff1673ffffffffffffffffffffffffffffffffffffffff168152602001600182015481525050338560010160009054906101000a900473ffffffffffffffffffffffffffffffffffffffff1661127d565b60018360070160006101000a81548160ff0219169083151502179055507fcb3dc2a21e2f5a2d47f2012a02e3d088725e88da087b62c693f98dedac273334843384604051610de8939291906120d8565b60405180910390a150505050565b60026020528060005260406000206000915090508060000154908060010160009054906101000a900473ffffffffffffffffffffffffffffffffffffffff16908060020160009054906101000a900473ffffffffffffffffffffffffffffffffffffffff1690806003016040518060400160405290816000820160009054906101000a900473ffffffffffffffffffffffffffffffffffffffff1673ffffffffffffffffffffffffffffffffffffffff1673ffffffffffffffffffffffffffffffffffffffff16815260200160018201548152505090806005016040518060400160405290816000820160009054906101000a900473ffffffffffffffffffffffffffffffffffffffff1673ffffffffffffffffffffffffffffffffffffffff1673ffffffffffffffffffffffffffffffffffffffff168152602001600182015481525050908060070160009054906101000a900460ff16908060080154905087565b60035481565b606060006001549050600080600190505b828111610fc1576002600082815260200190815260200160002060070160009054906101000a900460ff16610fae578180610faa90611c78565b9250505b8080610fb990611c78565b915050610f70565b5060008167ffffffffffffffff811115610fde57610fdd611597565b5b60405190808252806020026020018201604052801561101757816020015b61100461140a565b815260200190600190039081610ffc5790505b509050600080600190505b848111611272576002600082815260200190815260200160002060070160009054906101000a900460ff1661125f57600260008281526020019081526020016000206040518060e0016040529081600082015481526020016001820160009054906101000a900473ffffffffffffffffffffffffffffffffffffffff1673ffffffffffffffffffffffffffffffffffffffff1673ffffffffffffffffffffffffffffffffffffffff1681526020016002820160009054906101000a900473ffffffffffffffffffffffffffffffffffffffff1673ffffffffffffffffffffffffffffffffffffffff1673ffffffffffffffffffffffffffffffffffffffff168152602001600382016040518060400160405290816000820160009054906101000a900473ffffffffffffffffffffffffffffffffffffffff1673ffffffffffffffffffffffffffffffffffffffff1673ffffffffffffffffffffffffffffffffffffffff1681526020016001820154815250508152602001600582016040518060400160405290816000820160009054906101000a900473ffffffffffffffffffffffffffffffffffffffff1673ffffffffffffffffffffffffffffffffffffffff1673ffffffffffffffffffffffffffffffffffffffff16815260200160018201548152505081526020016007820160009054906101000a900460ff161515151581526020016008820154815250508383815181106112455761124461210f565b5b6020026020010181905250818061125b90611c78565b9250505b808061126a90611c78565b915050611022565b508194505050505090565b61128a836000015161021c565b1561134357826000015173ffffffffffffffffffffffffffffffffffffffff166342842e0e838386602001516040518463ffffffff1660e01b81526004016112d49392919061213e565b600060405180830381600087803b1580156112ee57600080fd5b505af19250505080156112ff575060015b61133e576040517f08c379a0000000000000000000000000000000000000000000000000000000008152600401611335906121c1565b60405180910390fd5b611405565b826000015173ffffffffffffffffffffffffffffffffffffffff166323b872dd838386602001516040518463ffffffff1660e01b81526004016113889392919061213e565b6020604051808303816000875af19250505080156113c457506040513d601f19601f820116820180604052508101906113c19190611b33565b60015b611403576040517f08c379a00000000000000000000000000000000000000000000000000000000081526004016113fa9061222d565b60405180910390fd5b505b505050565b6040518060e0016040528060008152602001600073ffffffffffffffffffffffffffffffffffffffff168152602001600073ffffffffffffffffffffffffffffffffffffffff16815260200161145e611481565b815260200161146b611481565b8152602001600015158152602001600081525090565b6040518060400160405280600073ffffffffffffffffffffffffffffffffffffffff168152602001600081525090565b6000604051905090565b600080fd5b600073ffffffffffffffffffffffffffffffffffffffff82169050919050565b60006114eb826114c0565b9050919050565b6114fb816114e0565b811461150657600080fd5b50565b600081359050611518816114f2565b92915050565b600060208284031215611534576115336114bb565b5b600061154284828501611509565b91505092915050565b60008115159050919050565b6115608161154b565b82525050565b600060208201905061157b6000830184611557565b92915050565b600080fd5b6000601f19601f8301169050919050565b7f4e487b7100000000000000000000000000000000000000000000000000000000600052604160045260246000fd5b6115cf82611586565b810181811067ffffffffffffffff821117156115ee576115ed611597565b5b80604052505050565b60006116016114b1565b905061160d82826115c6565b919050565b6000819050919050565b61162581611612565b811461163057600080fd5b50565b6000813590506116428161161c565b92915050565b60006040828403121561165e5761165d611581565b5b61166860406115f7565b9050600061167884828501611509565b600083015250602061168c84828501611633565b60208301525092915050565b600080600060a084860312156116b1576116b06114bb565b5b60006116bf86828701611648565b93505060406116d086828701611648565b92505060806116e186828701611633565b9150509250925092565b600060208284031215611701576117006114bb565b5b600061170f84828501611633565b91505092915050565b6000819050919050565b600061173d611738611733846114c0565b611718565b6114c0565b9050919050565b600061174f82611722565b9050919050565b600061176182611744565b9050919050565b61177181611756565b82525050565b600060208201905061178c6000830184611768565b92915050565b61179b81611612565b82525050565b6117aa816114e0565b82525050565b6117b9816114e0565b82525050565b6117c881611612565b82525050565b6040820160008201516117e460008501826117b0565b5060208201516117f760208501826117bf565b50505050565b600061012082019050611813600083018a611792565b61182060208301896117a1565b61182d60408301886117a1565b61183a60608301876117ce565b61184760a08301866117ce565b61185460e0830185611557565b611862610100830184611792565b98975050505050505050565b60006020820190506118836000830184611792565b92915050565b600081519050919050565b600082825260208201905092915050565b6000819050602082019050919050565b6040820160008201516118cb60008501826117b0565b5060208201516118de60208501826117bf565b50505050565b6118ed8161154b565b82525050565b6101208201600082015161190a60008501826117bf565b50602082015161191d60208501826117b0565b50604082015161193060408501826117b0565b50606082015161194360608501826118b5565b50608082015161195660a08501826118b5565b5060a082015161196960e08501826118e4565b5060c082015161197d6101008501826117bf565b50505050565b600061198f83836118f3565b6101208301905092915050565b6000602082019050919050565b60006119b482611889565b6119be8185611894565b93506119c9836118a5565b8060005b838110156119fa5781516119e18882611983565b97506119ec8361199c565b9250506001810190506119cd565b5085935050505092915050565b60006020820190508181036000830152611a2181846119a9565b905092915050565b60007fffffffff0000000000000000000000000000000000000000000000000000000082169050919050565b611a5e81611a29565b82525050565b6000602082019050611a796000830184611a55565b92915050565b600081519050919050565b600081905092915050565b60005b83811015611ab3578082015181840152602081019050611a98565b60008484015250505050565b6000611aca82611a7f565b611ad48185611a8a565b9350611ae4818560208601611a95565b80840191505092915050565b6000611afc8284611abf565b915081905092915050565b611b108161154b565b8114611b1b57600080fd5b50565b600081519050611b2d81611b07565b92915050565b600060208284031215611b4957611b486114bb565b5b6000611b5784828501611b1e565b91505092915050565b600082825260208201905092915050565b7f496e76616c69642073656c6c2061737365740000000000000000000000000000600082015250565b6000611ba7601283611b60565b9150611bb282611b71565b602082019050919050565b60006020820190508181036000830152611bd681611b9a565b9050919050565b7f496e76616c69642066756c66696c6c2061737365740000000000000000000000600082015250565b6000611c13601583611b60565b9150611c1e82611bdd565b602082019050919050565b60006020820190508181036000830152611c4281611c06565b9050919050565b7f4e487b7100000000000000000000000000000000000000000000000000000000600052601160045260246000fd5b6000611c8382611612565b91507fffffffffffffffffffffffffffffffffffffffffffffffffffffffffffffffff8203611cb557611cb4611c49565b5b600182019050919050565b600060c082019050611cd56000830187611792565b611ce260208301866117a1565b611cef60408301856117ce565b611cfc60808301846117ce565b95945050505050565b7f4f6e6c79206f776e65722063616e2063616c6c20746869732066756e6374696f60008201527f6e00000000000000000000000000000000000000000000000000000000000000602082015250565b6000611d61602183611b60565b9150611d6c82611d05565b604082019050919050565b60006020820190508181036000830152611d9081611d54565b9050919050565b7f4e6f2062616c616e636520746f20776974686472617700000000000000000000600082015250565b6000611dcd601683611b60565b9150611dd882611d97565b602082019050919050565b60006020820190508181036000830152611dfc81611dc0565b9050919050565b7f4f6e6c792073656c6c65722063616e2063616e63656c00000000000000000000600082015250565b6000611e39601683611b60565b9150611e4482611e03565b602082019050919050565b60006020820190508181036000830152611e6881611e2c565b9050919050565b7f4f7264657220616c72656164792066756c66696c6c6564000000000000000000600082015250565b6000611ea5601783611b60565b9150611eb082611e6f565b602082019050919050565b60006020820190508181036000830152611ed481611e98565b9050919050565b7f4f72646572206578706972656400000000000000000000000000000000000000600082015250565b6000611f11600d83611b60565b9150611f1c82611edb565b602082019050919050565b60006020820190508181036000830152611f4081611f04565b9050919050565b6000602082019050611f5c60008301846117a1565b92915050565b600081519050611f718161161c565b92915050565b600060208284031215611f8d57611f8c6114bb565b5b6000611f9b84828501611f62565b91505092915050565b6000611faf82611612565b9150611fba83611612565b9250828202611fc881611612565b91508282048414831517611fdf57611fde611c49565b5b5092915050565b7f4e487b7100000000000000000000000000000000000000000000000000000000600052601260045260246000fd5b600061202082611612565b915061202b83611612565b92508261203b5761203a611fe6565b5b828204905092915050565b7f496e73756666696369656e742045544820666f7220706c6174666f726d20666560008201527f6500000000000000000000000000000000000000000000000000000000000000602082015250565b60006120a2602183611b60565b91506120ad82612046565b604082019050919050565b600060208201905081810360008301526120d181612095565b9050919050565b60006060820190506120ed6000830186611792565b6120fa60208301856117a1565b6121076040830184611792565b949350505050565b7f4e487b7100000000000000000000000000000000000000000000000000000000600052603260045260246000fd5b600060608201905061215360008301866117a1565b61216060208301856117a1565b61216d6040830184611792565b949350505050565b7f455243373231207472616e73666572206661696c656400000000000000000000600082015250565b60006121ab601683611b60565b91506121b682612175565b602082019050919050565b600060208201905081810360008301526121da8161219e565b9050919050565b7f4552433230207472616e73666572206661696c65640000000000000000000000600082015250565b6000612217601583611b60565b9150612222826121e1565b602082019050919050565b600060208201905081810360008301526122468161220a565b905091905056fea26469706673582212209d21f74c6df3a957b833f314ca7011f8f305424b105208ac4b6357a41547f97064736f6c63430008180033",
  "devdoc": {
    "kind": "dev",
    "methods": {},
    "version": 1
  },
  "userdoc": {
    "kind": "user",
    "methods": {},
    "version": 1
  },
  "storageLayout": {
    "storage": [
      {
        "astId": 1632,
        "contract": "contracts/Marketplace.sol:Marketplace",
        "label": "owner",
        "offset": 0,
        "slot": "0",
        "type": "t_address"
      },
      {
        "astId": 1634,
        "contract": "contracts/Marketplace.sol:Marketplace",
        "label": "_orderCounter",
        "offset": 0,
        "slot": "1",
        "type": "t_uint256"
      },
      {
        "astId": 1639,
        "contract": "contracts/Marketplace.sol:Marketplace",
        "label": "orders",
        "offset": 0,
        "slot": "2",
        "type": "t_mapping(t_uint256,t_struct(Order)2331_storage)"
      },
      {
        "astId": 1642,
        "contract": "contracts/Marketplace.sol:Marketplace",
        "label": "platformFeePercentage",
        "offset": 0,
        "slot": "3",
        "type": "t_uint256"
      },
      {
        "astId": 1645,
        "contract": "contracts/Marketplace.sol:Marketplace",
        "label": "oracleHandler",
        "offset": 0,
        "slot": "4",
        "type": "t_contract(OracleHandler)2287"
      }
    ],
    "types": {
      "t_address": {
        "encoding": "inplace",
        "label": "address",
        "numberOfBytes": "20"
      },
      "t_bool": {
        "encoding": "inplace",
        "label": "bool",
        "numberOfBytes": "1"
      },
      "t_contract(OracleHandler)2287": {
        "encoding": "inplace",
        "label": "contract OracleHandler",
        "numberOfBytes": "20"
      },
      "t_mapping(t_uint256,t_struct(Order)2331_storage)": {
        "encoding": "mapping",
        "key": "t_uint256",
        "label": "mapping(uint256 => struct IMarketplace.Order)",
        "numberOfBytes": "32",
        "value": "t_struct(Order)2331_storage"
      },
      "t_struct(Item)2314_storage": {
        "encoding": "inplace",
        "label": "struct IMarketplace.Item",
        "members": [
          {
            "astId": 2311,
            "contract": "contracts/Marketplace.sol:Marketplace",
            "label": "asset",
            "offset": 0,
            "slot": "0",
            "type": "t_address"
          },
          {
            "astId": 2313,
            "contract": "contracts/Marketplace.sol:Marketplace",
            "label": "amountOrTokenId",
            "offset": 0,
            "slot": "1",
            "type": "t_uint256"
          }
        ],
        "numberOfBytes": "64"
      },
      "t_struct(Order)2331_storage": {
        "encoding": "inplace",
        "label": "struct IMarketplace.Order",
        "members": [
          {
            "astId": 2316,
            "contract": "contracts/Marketplace.sol:Marketplace",
            "label": "eid",
            "offset": 0,
            "slot": "0",
            "type": "t_uint256"
          },
          {
            "astId": 2318,
            "contract": "contracts/Marketplace.sol:Marketplace",
            "label": "seller",
            "offset": 0,
            "slot": "1",
            "type": "t_address"
          },
          {
            "astId": 2320,
            "contract": "contracts/Marketplace.sol:Marketplace",
            "label": "buyer",
            "offset": 0,
            "slot": "2",
            "type": "t_address"
          },
          {
            "astId": 2323,
            "contract": "contracts/Marketplace.sol:Marketplace",
            "label": "toSell",
            "offset": 0,
            "slot": "3",
            "type": "t_struct(Item)2314_storage"
          },
          {
            "astId": 2326,
            "contract": "contracts/Marketplace.sol:Marketplace",
            "label": "toFulfill",
            "offset": 0,
            "slot": "5",
            "type": "t_struct(Item)2314_storage"
          },
          {
            "astId": 2328,
            "contract": "contracts/Marketplace.sol:Marketplace",
            "label": "fulfilled",
            "offset": 0,
            "slot": "7",
            "type": "t_bool"
          },
          {
            "astId": 2330,
            "contract": "contracts/Marketplace.sol:Marketplace",
            "label": "deadline",
            "offset": 0,
            "slot": "8",
            "type": "t_uint256"
          }
        ],
        "numberOfBytes": "288"
      },
      "t_uint256": {
        "encoding": "inplace",
        "label": "uint256",
        "numberOfBytes": "32"
      }
    }
  }
}