{
  "address": "0x8B06853485735cE9DC76056178Ee45413493b9d9",
  "abi": [
    {
      "inputs": [
        {
          "internalType": "contract IPriceFeed",
          "name": "_usdcEthPriceFeed",
          "type": "address"
        }
      ],
      "stateMutability": "nonpayable",
      "type": "constructor"
    },
    {
      "inputs": [
        {
          "internalType": "address",
          "name": "",
          "type": "address"
        }
      ],
      "name": "assetPriceFeeds",
      "outputs": [
        {
          "internalType": "address",
          "name": "",
          "type": "address"
        }
      ],
      "stateMutability": "view",
      "type": "function"
    },
    {
      "inputs": [
        {
          "internalType": "address",
          "name": "asset",
          "type": "address"
        }
      ],
      "name": "getLatestPriceInETH",
      "outputs": [
        {
          "internalType": "uint256",
          "name": "",
          "type": "uint256"
        }
      ],
      "stateMutability": "view",
      "type": "function"
    },
    {
      "inputs": [],
      "name": "nftPriceFeed",
      "outputs": [
        {
          "internalType": "contract IPriceFeed",
          "name": "",
          "type": "address"
        }
      ],
      "stateMutability": "view",
      "type": "function"
    },
    {
      "inputs": [
        {
          "internalType": "address",
          "name": "asset",
          "type": "address"
        },
        {
          "internalType": "address",
          "name": "priceFeed",
          "type": "address"
        }
      ],
      "name": "setChainlinkPriceFeed",
      "outputs": [],
      "stateMutability": "nonpayable",
      "type": "function"
    },
    {
      "inputs": [],
      "name": "usdcEthPriceFeed",
      "outputs": [
        {
          "internalType": "contract IPriceFeed",
          "name": "",
          "type": "address"
        }
      ],
      "stateMutability": "view",
      "type": "function"
    }
  ],
  "transactionHash": "0xd1eb28a3d6febdc79b5ff4c1f1aa9436a22c82d91b2b35c40176060d2b2b56d0",
  "args": [
    "0xEe9F2375b4bdF6387aa8265dD4FB8F16512A1d46"
  ],
  "numDeployments": 1,
  "solcInputHash": "866afac280fe23d97514be623aa88998",
  "bytecode": "0x608060405234801561001057600080fd5b50604051610c15380380610c15833981810160405281019061003291906100ee565b80600160006101000a81548173ffffffffffffffffffffffffffffffffffffffff021916908373ffffffffffffffffffffffffffffffffffffffff1602179055505061011b565b600080fd5b600073ffffffffffffffffffffffffffffffffffffffff82169050919050565b60006100a98261007e565b9050919050565b60006100bb8261009e565b9050919050565b6100cb816100b0565b81146100d657600080fd5b50565b6000815190506100e8816100c2565b92915050565b60006020828403121561010457610103610079565b5b6000610112848285016100d9565b91505092915050565b610aeb8061012a6000396000f3fe608060405234801561001057600080fd5b50600436106100575760003560e01c80632006311e1461005c578063749c80231461008c578063bf81e068146100a8578063d27e52e8146100c6578063f55c6303146100f6575b600080fd5b6100766004803603810190610071919061068b565b610114565b60405161008391906106d1565b60405180910390f35b6100a660048036038101906100a191906106ec565b610490565b005b6100b0610580565b6040516100bd919061078b565b60405180910390f35b6100e060048036038101906100db919061068b565b6105a6565b6040516100ed91906107b5565b60405180910390f35b6100fe6105d9565b60405161010b919061078b565b60405180910390f35b6000806000808473ffffffffffffffffffffffffffffffffffffffff1673ffffffffffffffffffffffffffffffffffffffff16815260200190815260200160002060009054906101000a900473ffffffffffffffffffffffffffffffffffffffff169050600073ffffffffffffffffffffffffffffffffffffffff168173ffffffffffffffffffffffffffffffffffffffff16036101e7576040517f08c379a00000000000000000000000000000000000000000000000000000000081526004016101de9061082d565b60405180910390fd5b600081905060008173ffffffffffffffffffffffffffffffffffffffff1663313ce5676040518163ffffffff1660e01b8152600401602060405180830381865afa158015610239573d6000803e3d6000fd5b505050506040513d601f19601f8201168201806040525081019061025d9190610886565b60ff168273ffffffffffffffffffffffffffffffffffffffff166350d25bcd6040518163ffffffff1660e01b8152600401602060405180830381865afa1580156102ab573d6000803e3d6000fd5b505050506040513d601f19601f820116820180604052508101906102cf91906108df565b6102d9919061096a565b90506000811161031e576040517f08c379a0000000000000000000000000000000000000000000000000000000008152600401610315906109e7565b60405180910390fd5b60128273ffffffffffffffffffffffffffffffffffffffff1663313ce5676040518163ffffffff1660e01b8152600401602060405180830381865afa15801561036b573d6000803e3d6000fd5b505050506040513d601f19601f8201168201806040525081019061038f9190610886565b60ff16036103a25780935050505061048b565b6000600160009054906101000a900473ffffffffffffffffffffffffffffffffffffffff1673ffffffffffffffffffffffffffffffffffffffff166350d25bcd6040518163ffffffff1660e01b8152600401602060405180830381865afa158015610411573d6000803e3d6000fd5b505050506040513d601f19601f8201168201806040525081019061043591906108df565b90506000811161047a576040517f08c379a000000000000000000000000000000000000000000000000000000000815260040161047190610a53565b60405180910390fd5b61048482826105ff565b9450505050505b919050565b600073ffffffffffffffffffffffffffffffffffffffff168173ffffffffffffffffffffffffffffffffffffffff16036104ff576040517f08c379a00000000000000000000000000000000000000000000000000000000081526004016104f69061082d565b60405180910390fd5b806000808473ffffffffffffffffffffffffffffffffffffffff1673ffffffffffffffffffffffffffffffffffffffff16815260200190815260200160002060006101000a81548173ffffffffffffffffffffffffffffffffffffffff021916908373ffffffffffffffffffffffffffffffffffffffff1602179055505050565b600160009054906101000a900473ffffffffffffffffffffffffffffffffffffffff1681565b60006020528060005260406000206000915054906101000a900473ffffffffffffffffffffffffffffffffffffffff1681565b600260009054906101000a900473ffffffffffffffffffffffffffffffffffffffff1681565b600081670de0b6b3a7640000846106169190610a73565b610620919061096a565b905092915050565b600080fd5b600073ffffffffffffffffffffffffffffffffffffffff82169050919050565b60006106588261062d565b9050919050565b6106688161064d565b811461067357600080fd5b50565b6000813590506106858161065f565b92915050565b6000602082840312156106a1576106a0610628565b5b60006106af84828501610676565b91505092915050565b6000819050919050565b6106cb816106b8565b82525050565b60006020820190506106e660008301846106c2565b92915050565b6000806040838503121561070357610702610628565b5b600061071185828601610676565b925050602061072285828601610676565b9150509250929050565b6000819050919050565b600061075161074c6107478461062d565b61072c565b61062d565b9050919050565b600061076382610736565b9050919050565b600061077582610758565b9050919050565b6107858161076a565b82525050565b60006020820190506107a0600083018461077c565b92915050565b6107af8161064d565b82525050565b60006020820190506107ca60008301846107a6565b92915050565b600082825260208201905092915050565b7f496e76616c696420707269636520666565642061646472657373000000000000600082015250565b6000610817601a836107d0565b9150610822826107e1565b602082019050919050565b600060208201905081810360008301526108468161080a565b9050919050565b600060ff82169050919050565b6108638161084d565b811461086e57600080fd5b50565b6000815190506108808161085a565b92915050565b60006020828403121561089c5761089b610628565b5b60006108aa84828501610871565b91505092915050565b6108bc816106b8565b81146108c757600080fd5b50565b6000815190506108d9816108b3565b92915050565b6000602082840312156108f5576108f4610628565b5b6000610903848285016108ca565b91505092915050565b7f4e487b7100000000000000000000000000000000000000000000000000000000600052601260045260246000fd5b7f4e487b7100000000000000000000000000000000000000000000000000000000600052601160045260246000fd5b6000610975826106b8565b9150610980836106b8565b9250826109905761098f61090c565b5b828204905092915050565b7f496e76616c69642061737365742070726963652066726f6d206f7261636c6500600082015250565b60006109d1601f836107d0565b91506109dc8261099b565b602082019050919050565b60006020820190508181036000830152610a00816109c4565b9050919050565b7f496e76616c6964204554482070726963652066726f6d206f7261636c65000000600082015250565b6000610a3d601d836107d0565b9150610a4882610a07565b602082019050919050565b60006020820190508181036000830152610a6c81610a30565b9050919050565b6000610a7e826106b8565b9150610a89836106b8565b9250828202610a97816106b8565b91508282048414831517610aae57610aad61093b565b5b509291505056fea2646970667358221220dc75eccb8001d2640e585f8b8aaef4b309f247dfe1a35e642c50e9b5cc9abd5364736f6c63430008180033",
  "devdoc": {
    "kind": "dev",
    "methods": {
      "getLatestPriceInETH(address)": {
        "details": "Converts the asset price (e.g., in USD) into ETH.",
        "params": {
          "asset": "The pair name of the asset (e.g., USDC/ETH, USDT/ETH) for which the price is being requested."
        },
        "returns": {
          "_0": "The price of the asset in ETH."
        }
      },
      "setChainlinkPriceFeed(address,address)": {
        "details": "Adds a new asset and its price feed.",
        "params": {
          "asset": "The pair name of the asset (e.g., USDC/ETH, USDT/ETH).",
          "priceFeed": "The address of the Chainlink price feed for that asset."
        }
      }
    },
    "version": 1
  },
  "userdoc": {
    "kind": "user",
    "methods": {},
    "version": 1
  },
  "storageLayout": {
    "storage": [
      {
        "astId": 2149,
        "contract": "contracts/OracleHandler.sol:OracleHandler",
        "label": "assetPriceFeeds",
        "offset": 0,
        "slot": "0",
        "type": "t_mapping(t_address,t_address)"
      },
      {
        "astId": 2152,
        "contract": "contracts/OracleHandler.sol:OracleHandler",
        "label": "usdcEthPriceFeed",
        "offset": 0,
        "slot": "1",
        "type": "t_contract(IPriceFeed)2145"
      },
      {
        "astId": 2155,
        "contract": "contracts/OracleHandler.sol:OracleHandler",
        "label": "nftPriceFeed",
        "offset": 0,
        "slot": "2",
        "type": "t_contract(IPriceFeed)2145"
      }
    ],
    "types": {
      "t_address": {
        "encoding": "inplace",
        "label": "address",
        "numberOfBytes": "20"
      },
      "t_contract(IPriceFeed)2145": {
        "encoding": "inplace",
        "label": "contract IPriceFeed",
        "numberOfBytes": "20"
      },
      "t_mapping(t_address,t_address)": {
        "encoding": "mapping",
        "key": "t_address",
        "label": "mapping(address => address)",
        "numberOfBytes": "32",
        "value": "t_address"
      }
    }
  }
}